{
  "contractName": "SimpleStorage",
  "abi": [
    {
      "anonymous": false,
      "inputs": [
        {
          "indexed": false,
          "internalType": "uint256",
          "name": "value",
          "type": "uint256"
        }
      ],
      "name": "ValueChanged",
      "type": "event"
    },
    {
      "inputs": [],
      "name": "greeter",
      "outputs": [
        {
          "internalType": "string",
          "name": "",
          "type": "string"
        }
      ],
      "stateMutability": "view",
      "type": "function",
      "constant": true
    },
    {
      "inputs": [],
      "name": "read",
      "outputs": [
        {
          "internalType": "uint256",
          "name": "",
          "type": "uint256"
        }
      ],
      "stateMutability": "view",
      "type": "function",
      "constant": true
    },
    {
      "inputs": [
        {
          "internalType": "uint256",
          "name": "newValue",
          "type": "uint256"
        }
      ],
      "name": "write",
      "outputs": [],
      "stateMutability": "nonpayable",
      "type": "function"
    },
    {
      "inputs": [
        {
          "internalType": "string",
          "name": "_greeter",
          "type": "string"
        }
      ],
      "name": "setGreeter",
      "outputs": [],
      "stateMutability": "nonpayable",
      "type": "function"
    }
  ],
  "bytecode": "0x608060405234801561001057600080fd5b506107ab806100206000396000f3fe608060405234801561001057600080fd5b506004361061004c5760003560e01c8063190663e4146100515780631c8499e51461006d5780632f048afa1461008b57806357de26a4146100a7575b600080fd5b61006b60048036038101906100669190610267565b6100c5565b005b6100756100db565b6040516100829190610344565b60405180910390f35b6100a560048036038101906100a0919061039c565b610169565b005b6100af6101ef565b6040516100bc91906103d8565b60405180910390f35b8181600191826100d6929190610639565b505050565b600180546100e89061045c565b80601f01602080910402602001604051908101604052809291908181526020018280546101149061045c565b80156101615780601f1061013657610100808354040283529160200191610161565b820191906000526020600020905b81548152906001019060200180831161014457829003601f168201915b505050505081565b600581036101ac576040517f08c379a00000000000000000000000000000000000000000000000000000000081526004016101a390610755565b60405180910390fd5b806000819055507f93fe6d397c74fdf1402a8b72e47b68512f0510d7b98a4bc4cbdf6ac7108b3c596000546040516101e491906103d8565b60405180910390a150565b60008054905090565b600080fd5b600080fd5b600080fd5b600080fd5b600080fd5b60008083601f84011261022757610226610202565b5b8235905067ffffffffffffffff81111561024457610243610207565b5b6020830191508360018202830111156102605761025f61020c565b5b9250929050565b6000806020838503121561027e5761027d6101f8565b5b600083013567ffffffffffffffff81111561029c5761029b6101fd565b5b6102a885828601610211565b92509250509250929050565b600081519050919050565b600082825260208201905092915050565b60005b838110156102ee5780820151818401526020810190506102d3565b60008484015250505050565b6000601f19601f8301169050919050565b6000610316826102b4565b61032081856102bf565b93506103308185602086016102d0565b610339816102fa565b840191505092915050565b6000602082019050818103600083015261035e818461030b565b905092915050565b6000819050919050565b61037981610366565b811461038457600080fd5b50565b60008135905061039681610370565b92915050565b6000602082840312156103b2576103b16101f8565b5b60006103c084828501610387565b91505092915050565b6103d281610366565b82525050565b60006020820190506103ed60008301846103c9565b92915050565b600082905092915050565b7f4e487b7100000000000000000000000000000000000000000000000000000000600052604160045260246000fd5b7f4e487b7100000000000000000000000000000000000000000000000000000000600052602260045260246000fd5b6000600282049050600182168061047457607f821691505b6020821081036104875761048661042d565b5b50919050565b60008190508160005260206000209050919050565b60006020601f8301049050919050565b600082821b905092915050565b6000600883026104ef7fffffffffffffffffffffffffffffffffffffffffffffffffffffffffffffffff826104b2565b6104f986836104b2565b95508019841693508086168417925050509392505050565b6000819050919050565b600061053661053161052c84610366565b610511565b610366565b9050919050565b6000819050919050565b6105508361051b565b61056461055c8261053d565b8484546104bf565b825550505050565b600090565b61057961056c565b610584818484610547565b505050565b5b818110156105a85761059d600082610571565b60018101905061058a565b5050565b601f8211156105ed576105be8161048d565b6105c7846104a2565b810160208510156105d6578190505b6105ea6105e2856104a2565b830182610589565b50505b505050565b600082821c905092915050565b6000610610600019846008026105f2565b1980831691505092915050565b600061062983836105ff565b9150826002028217905092915050565b61064383836103f3565b67ffffffffffffffff81111561065c5761065b6103fe565b5b610666825461045c565b6106718282856105ac565b6000601f8311600181146106a0576000841561068e578287013590505b610698858261061d565b865550610700565b601f1984166106ae8661048d565b60005b828110156106d6578489013582556001820191506020850194506020810190506106b1565b868310156106f357848901356106ef601f8916826105ff565b8355505b6001600288020188555050505b50505050505050565b7f3520666f7262696464656e000000000000000000000000000000000000000000600082015250565b600061073f600b836102bf565b915061074a82610709565b602082019050919050565b6000602082019050818103600083015261076e81610732565b905091905056fea2646970667358221220b08553886eb11278138361f56aec8fd5ae52450e68a6106a723d8114c9d5ded664736f6c63430008110033",
  "immutableReferences": {},
  "source": "// SPDX-License-Identifier: MIT\npragma solidity 0.8.17;\n\ncontract SimpleStorage {\n    uint256 value;\n    string public greeter;\n\n    event ValueChanged(uint256 value);\n\n    function read() public view returns (uint256) {\n        return value;\n    }\n\n    function write(uint256 newValue) public {\n        require(newValue != 5, \"5 forbidden\");\n        value = newValue;\n        emit ValueChanged(value);\n    }\n\n    function setGreeter(string calldata _greeter) external {\n        greeter = _greeter;\n    }\n}\n",
  "sourcePath": "/Users/guillaumedebavelaere/alyra/Developpeur-Ethereum-Template/6. Dapp/cours/react-truffle/truffle/contracts/SimpleStorage.sol",
  "compiler": {
    "name": "solc",
    "version": "0.8.17+commit.8df45f5f.Emscripten.clang"
  },
  "schemaVersion": "3.4.10",
  "updatedAt": "2022-11-15T17:25:03.540Z",
  "networkType": "ethereum",
  "devdoc": {
    "kind": "dev",
    "methods": {},
    "version": 1
  },
  "userdoc": {
    "kind": "user",
    "methods": {},
    "version": 1
  }
}