{
  "contractName": "SimpleStorage",
  "abi": [
    {
      "anonymous": false,
      "inputs": [
        {
          "indexed": false,
          "internalType": "uint256",
          "name": "value",
          "type": "uint256"
        }
      ],
      "name": "ValueChanged",
      "type": "event"
    },
    {
      "inputs": [],
      "name": "greeter",
      "outputs": [
        {
          "internalType": "string",
          "name": "",
          "type": "string"
        }
      ],
      "stateMutability": "view",
      "type": "function",
      "constant": true
    },
    {
      "inputs": [],
      "name": "read",
      "outputs": [
        {
          "internalType": "uint256",
          "name": "",
          "type": "uint256"
        }
      ],
      "stateMutability": "view",
      "type": "function",
      "constant": true
    },
    {
      "inputs": [
        {
          "internalType": "uint256",
          "name": "newValue",
          "type": "uint256"
        }
      ],
      "name": "write",
      "outputs": [],
      "stateMutability": "nonpayable",
      "type": "function"
    },
    {
      "inputs": [
        {
          "internalType": "string",
          "name": "_greeter",
          "type": "string"
        }
      ],
      "name": "setGreeter",
      "outputs": [],
      "stateMutability": "nonpayable",
      "type": "function"
    }
  ],
  "bytecode": "0x608060405234801561001057600080fd5b506104f2806100206000396000f3fe608060405234801561001057600080fd5b506004361061004c5760003560e01c8063190663e4146100515780631c8499e51461006d5780632f048afa1461008b57806357de26a4146100a7575b600080fd5b61006b600480360381019061006691906102c7565b6100c5565b005b6100756100db565b60405161008291906103ad565b60405180910390f35b6100a560048036038101906100a09190610405565b610169565b005b6100af6101ac565b6040516100bc9190610441565b60405180910390f35b8181600191906100d69291906101b5565b505050565b600180546100e89061048b565b80601f01602080910402602001604051908101604052809291908181526020018280546101149061048b565b80156101615780601f1061013657610100808354040283529160200191610161565b820191906000526020600020905b81548152906001019060200180831161014457829003601f168201915b505050505081565b806000819055507f93fe6d397c74fdf1402a8b72e47b68512f0510d7b98a4bc4cbdf6ac7108b3c596000546040516101a19190610441565b60405180910390a150565b60008054905090565b8280546101c19061048b565b90600052602060002090601f0160209004810192826101e3576000855561022a565b82601f106101fc57803560ff191683800117855561022a565b8280016001018555821561022a579182015b8281111561022957823582559160200191906001019061020e565b5b509050610237919061023b565b5090565b5b8082111561025457600081600090555060010161023c565b5090565b600080fd5b600080fd5b600080fd5b600080fd5b600080fd5b60008083601f84011261028757610286610262565b5b8235905067ffffffffffffffff8111156102a4576102a3610267565b5b6020830191508360018202830111156102c0576102bf61026c565b5b9250929050565b600080602083850312156102de576102dd610258565b5b600083013567ffffffffffffffff8111156102fc576102fb61025d565b5b61030885828601610271565b92509250509250929050565b600081519050919050565b600082825260208201905092915050565b60005b8381101561034e578082015181840152602081019050610333565b8381111561035d576000848401525b50505050565b6000601f19601f8301169050919050565b600061037f82610314565b610389818561031f565b9350610399818560208601610330565b6103a281610363565b840191505092915050565b600060208201905081810360008301526103c78184610374565b905092915050565b6000819050919050565b6103e2816103cf565b81146103ed57600080fd5b50565b6000813590506103ff816103d9565b92915050565b60006020828403121561041b5761041a610258565b5b6000610429848285016103f0565b91505092915050565b61043b816103cf565b82525050565b60006020820190506104566000830184610432565b92915050565b7f4e487b7100000000000000000000000000000000000000000000000000000000600052602260045260246000fd5b600060028204905060018216806104a357607f821691505b6020821081036104b6576104b561045c565b5b5091905056fea264697066735822122057bd2f0a2dc42e07318906154ce3313df4b5d90349f9f3c89835f500c465fe5164736f6c634300080e0033",
  "immutableReferences": {},
  "source": "// SPDX-License-Identifier: MIT\npragma solidity >=0.4.22 <0.9.0;\n\ncontract SimpleStorage {\n  uint256 value;\n  string public greeter;\n\n  event ValueChanged(uint value);\n\n  function read() public view returns (uint256) {\n    return value;\n  }\n\n  function write(uint256 newValue) public {\n    value = newValue;\n    emit ValueChanged(value);\n  }\n\n  function setGreeter(string calldata _greeter) external {\n    greeter = _greeter;\n  }\n  \n}\n",
  "sourcePath": "/Users/guillaumedebavelaere/alyra/Developpeur-Ethereum-Template/6. Dapp/cours/react-truffle/truffle/contracts/SimpleStorage.sol",
  "compiler": {
    "name": "solc",
    "version": "0.8.14+commit.80d49f37.Emscripten.clang"
  },
  "schemaVersion": "3.4.10",
  "updatedAt": "2022-11-07T09:16:18.016Z",
  "networkType": "ethereum",
  "devdoc": {
    "kind": "dev",
    "methods": {},
    "version": 1
  },
  "userdoc": {
    "kind": "user",
    "methods": {},
    "version": 1
  }
}